{
  "address": "0xe7f1725E7734CE288F8367e1Bb143E90bb3F0512",
  "abi": [
    {
      "inputs": [
        {
          "internalType": "address",
          "name": "agregatorAddress",
          "type": "address"
        }
      ],
      "stateMutability": "nonpayable",
      "type": "constructor"
    },
    {
      "inputs": [],
      "name": "NotEnoughDonation",
      "type": "error"
    },
    {
      "inputs": [],
      "name": "NotOwner",
      "type": "error"
    },
    {
      "inputs": [],
      "name": "WithdrawFailed",
      "type": "error"
    },
    {
      "anonymous": false,
      "inputs": [],
      "name": "AccountFunder",
      "type": "event"
    },
    {
      "anonymous": false,
      "inputs": [],
      "name": "FoundsWithdrawn",
      "type": "event"
    },
    {
      "stateMutability": "payable",
      "type": "fallback"
    },
    {
      "inputs": [],
      "name": "MIN_USD",
      "outputs": [
        {
          "internalType": "uint256",
          "name": "",
          "type": "uint256"
        }
      ],
      "stateMutability": "view",
      "type": "function"
    },
    {
      "inputs": [
        {
          "internalType": "uint256",
          "name": "",
          "type": "uint256"
        }
      ],
      "name": "founders",
      "outputs": [
        {
          "internalType": "address",
          "name": "",
          "type": "address"
        }
      ],
      "stateMutability": "view",
      "type": "function"
    },
    {
      "inputs": [],
      "name": "fund",
      "outputs": [],
      "stateMutability": "payable",
      "type": "function"
    },
    {
      "inputs": [],
      "name": "i_owner",
      "outputs": [
        {
          "internalType": "address payable",
          "name": "",
          "type": "address"
        }
      ],
      "stateMutability": "view",
      "type": "function"
    },
    {
      "inputs": [],
      "name": "withdraw",
      "outputs": [],
      "stateMutability": "nonpayable",
      "type": "function"
    },
    {
      "stateMutability": "payable",
      "type": "receive"
    }
  ],
  "transactionHash": "0x5bdefb8fe2118151c4eccd48a076766b40578536ab46ed3386839553b128aecb",
  "args": [
    "0x5FbDB2315678afecb367f032d93F642f64180aa3"
  ],
  "numDeployments": 1,
  "solcInputHash": "a248910a4e18b03230fb57ed54d9cd6e",
  "bytecode": "0x60a060405234801561001057600080fd5b50604051610d78380380610d788339818101604052810190610032919061010f565b3373ffffffffffffffffffffffffffffffffffffffff1660808173ffffffffffffffffffffffffffffffffffffffff1681525050806000806101000a81548173ffffffffffffffffffffffffffffffffffffffff021916908373ffffffffffffffffffffffffffffffffffffffff1602179055505061013c565b600080fd5b600073ffffffffffffffffffffffffffffffffffffffff82169050919050565b60006100dc826100b1565b9050919050565b6100ec816100d1565b81146100f757600080fd5b50565b600081519050610109816100e3565b92915050565b600060208284031215610125576101246100ac565b5b6000610133848285016100fa565b91505092915050565b608051610c1a61015e600039600081816102dc01526105b00152610c1a6000f3fe60806040526004361061004e5760003560e01c8063213dbea2146100675780633ccfd60b14610092578063b60d4288146100a9578063d8e75f62146100b3578063dba6335f146100f05761005d565b3661005d5761005b61011b565b005b61006561011b565b005b34801561007357600080fd5b5061007c6102cd565b6040516100899190610762565b60405180910390f35b34801561009e57600080fd5b506100a76102da565b005b6100b161011b565b005b3480156100bf57600080fd5b506100da60048036038101906100d591906107ae565b61056f565b6040516100e7919061081c565b60405180910390f35b3480156100fc57600080fd5b506101056105ae565b6040516101129190610858565b60405180910390f35b600061015060008054906101000a900473ffffffffffffffffffffffffffffffffffffffff16346105d290919063ffffffff16565b90506802b5e3af16b1880000811015610195576040517fc4d8970800000000000000000000000000000000000000000000000000000000815260040160405180910390fd5b61019e3361060e565b610206576001339080600181540180825580915050600190039060005260206000200160009091909190916101000a81548173ffffffffffffffffffffffffffffffffffffffff021916908373ffffffffffffffffffffffffffffffffffffffff1602179055505b34600260003373ffffffffffffffffffffffffffffffffffffffff1673ffffffffffffffffffffffffffffffffffffffff168152602001908152602001600020600001600082825461025891906108a2565b925050819055506001600260003373ffffffffffffffffffffffffffffffffffffffff1673ffffffffffffffffffffffffffffffffffffffff16815260200190815260200160002060010160006101000a81548160ff021916908360018111156102c5576102c46108d6565b5b021790555050565b6802b5e3af16b188000081565b7f000000000000000000000000000000000000000000000000000000000000000073ffffffffffffffffffffffffffffffffffffffff163373ffffffffffffffffffffffffffffffffffffffff161461035f576040517f30cd747100000000000000000000000000000000000000000000000000000000815260040160405180910390fd5b600080600090505b60018054905081101561049b576000600260006001848154811061038e5761038d610905565b5b9060005260206000200160009054906101000a900473ffffffffffffffffffffffffffffffffffffffff1673ffffffffffffffffffffffffffffffffffffffff1673ffffffffffffffffffffffffffffffffffffffff168152602001908152602001600020604051806040016040529081600082015481526020016001820160009054906101000a900460ff16600181111561042d5761042c6108d6565b5b600181111561043f5761043e6108d6565b5b815250509050600180811115610458576104576108d6565b5b8160200151600181111561046f5761046e6108d6565b5b036104875780600001518361048491906108a2565b92505b50808061049390610934565b915050610367565b5060003373ffffffffffffffffffffffffffffffffffffffff16476040516104c2906109ad565b60006040518083038185875af1925050503d80600081146104ff576040519150601f19603f3d011682016040523d82523d6000602084013e610504565b606091505b505090508061053f576040517f750b219c00000000000000000000000000000000000000000000000000000000815260040160405180910390fd5b7fe5975699205368c0751a6f32875a9f5c15b00fdf3fb5658b307a8ab68deb57ec60405160405180910390a15050565b6001818154811061057f57600080fd5b906000526020600020016000915054906101000a900473ffffffffffffffffffffffffffffffffffffffff1681565b7f000000000000000000000000000000000000000000000000000000000000000081565b6000806105de836106b8565b90506000670de0b6b3a764000082866105f791906109c2565b6106019190610a33565b9050809250505092915050565b6000806000905060005b6001805490508110156106ae578373ffffffffffffffffffffffffffffffffffffffff16600182815481106106505761064f610905565b5b9060005260206000200160009054906101000a900473ffffffffffffffffffffffffffffffffffffffff1673ffffffffffffffffffffffffffffffffffffffff160361069b57600191505b80806106a690610934565b915050610618565b5080915050919050565b6000808273ffffffffffffffffffffffffffffffffffffffff1663feaf968c6040518163ffffffff1660e01b815260040160a060405180830381865afa158015610706573d6000803e3d6000fd5b505050506040513d601f19601f8201168201806040525081019061072a9190610af1565b5050509150506402540be400816107419190610b6c565b915050919050565b6000819050919050565b61075c81610749565b82525050565b60006020820190506107776000830184610753565b92915050565b600080fd5b61078b81610749565b811461079657600080fd5b50565b6000813590506107a881610782565b92915050565b6000602082840312156107c4576107c361077d565b5b60006107d284828501610799565b91505092915050565b600073ffffffffffffffffffffffffffffffffffffffff82169050919050565b6000610806826107db565b9050919050565b610816816107fb565b82525050565b6000602082019050610831600083018461080d565b92915050565b6000610842826107db565b9050919050565b61085281610837565b82525050565b600060208201905061086d6000830184610849565b92915050565b7f4e487b7100000000000000000000000000000000000000000000000000000000600052601160045260246000fd5b60006108ad82610749565b91506108b883610749565b92508282019050808211156108d0576108cf610873565b5b92915050565b7f4e487b7100000000000000000000000000000000000000000000000000000000600052602160045260246000fd5b7f4e487b7100000000000000000000000000000000000000000000000000000000600052603260045260246000fd5b600061093f82610749565b91507fffffffffffffffffffffffffffffffffffffffffffffffffffffffffffffffff820361097157610970610873565b5b600182019050919050565b600081905092915050565b50565b600061099760008361097c565b91506109a282610987565b600082019050919050565b60006109b88261098a565b9150819050919050565b60006109cd82610749565b91506109d883610749565b92508282026109e681610749565b915082820484148315176109fd576109fc610873565b5b5092915050565b7f4e487b7100000000000000000000000000000000000000000000000000000000600052601260045260246000fd5b6000610a3e82610749565b9150610a4983610749565b925082610a5957610a58610a04565b5b828204905092915050565b600069ffffffffffffffffffff82169050919050565b610a8381610a64565b8114610a8e57600080fd5b50565b600081519050610aa081610a7a565b92915050565b6000819050919050565b610ab981610aa6565b8114610ac457600080fd5b50565b600081519050610ad681610ab0565b92915050565b600081519050610aeb81610782565b92915050565b600080600080600060a08688031215610b0d57610b0c61077d565b5b6000610b1b88828901610a91565b9550506020610b2c88828901610ac7565b9450506040610b3d88828901610adc565b9350506060610b4e88828901610adc565b9250506080610b5f88828901610a91565b9150509295509295909350565b6000610b7782610aa6565b9150610b8283610aa6565b9250828202610b9081610aa6565b91507f80000000000000000000000000000000000000000000000000000000000000008414600084121615610bc857610bc7610873565b5b8282058414831517610bdd57610bdc610873565b5b509291505056fea2646970667358221220f9bd107de24d5e214e55904b2ca203744dd49a62f8a577741d549b6f132ecc6564736f6c63430008120033",
  "devdoc": {
    "kind": "dev",
    "methods": {},
    "version": 1
  },
  "userdoc": {
    "kind": "user",
    "methods": {},
    "version": 1
  },
  "storageLayout": {
    "storage": [
      {
        "astId": 378,
        "contract": "contracts/FundMe.sol:FundMe",
        "label": "agregator",
        "offset": 0,
        "slot": "0",
        "type": "t_contract(AggregatorV3Interface)102"
      },
      {
        "astId": 390,
        "contract": "contracts/FundMe.sol:FundMe",
        "label": "founders",
        "offset": 0,
        "slot": "1",
        "type": "t_array(t_address)dyn_storage"
      },
      {
        "astId": 395,
        "contract": "contracts/FundMe.sol:FundMe",
        "label": "foundsByFounder",
        "offset": 0,
        "slot": "2",
        "type": "t_mapping(t_address,t_struct(FundObj)387_storage)"
      }
    ],
    "types": {
      "t_address": {
        "encoding": "inplace",
        "label": "address",
        "numberOfBytes": "20"
      },
      "t_array(t_address)dyn_storage": {
        "base": "t_address",
        "encoding": "dynamic_array",
        "label": "address[]",
        "numberOfBytes": "32"
      },
      "t_contract(AggregatorV3Interface)102": {
        "encoding": "inplace",
        "label": "contract AggregatorV3Interface",
        "numberOfBytes": "20"
      },
      "t_enum(State)381": {
        "encoding": "inplace",
        "label": "enum FundMe.State",
        "numberOfBytes": "1"
      },
      "t_mapping(t_address,t_struct(FundObj)387_storage)": {
        "encoding": "mapping",
        "key": "t_address",
        "label": "mapping(address => struct FundMe.FundObj)",
        "numberOfBytes": "32",
        "value": "t_struct(FundObj)387_storage"
      },
      "t_struct(FundObj)387_storage": {
        "encoding": "inplace",
        "label": "struct FundMe.FundObj",
        "members": [
          {
            "astId": 383,
            "contract": "contracts/FundMe.sol:FundMe",
            "label": "ammount",
            "offset": 0,
            "slot": "0",
            "type": "t_uint256"
          },
          {
            "astId": 386,
            "contract": "contracts/FundMe.sol:FundMe",
            "label": "state",
            "offset": 0,
            "slot": "1",
            "type": "t_enum(State)381"
          }
        ],
        "numberOfBytes": "64"
      },
      "t_uint256": {
        "encoding": "inplace",
        "label": "uint256",
        "numberOfBytes": "32"
      }
    }
  }
}